{
  "contractName": "Dex",
  "abi": [
    {
      "inputs": [],
      "stateMutability": "nonpayable",
      "type": "constructor"
    },
    {
      "anonymous": false,
      "inputs": [
        {
          "indexed": false,
          "internalType": "uint256",
          "name": "tradeId",
          "type": "uint256"
        },
        {
          "indexed": false,
          "internalType": "uint256",
          "name": "orderId",
          "type": "uint256"
        },
        {
          "indexed": true,
          "internalType": "bytes32",
          "name": "ticker",
          "type": "bytes32"
        },
        {
          "indexed": true,
          "internalType": "address",
          "name": "trader1",
          "type": "address"
        },
        {
          "indexed": true,
          "internalType": "address",
          "name": "trader2",
          "type": "address"
        },
        {
          "indexed": false,
          "internalType": "uint256",
          "name": "amount",
          "type": "uint256"
        },
        {
          "indexed": false,
          "internalType": "uint256",
          "name": "price",
          "type": "uint256"
        },
        {
          "indexed": false,
          "internalType": "uint256",
          "name": "date",
          "type": "uint256"
        }
      ],
      "name": "NewTrade",
      "type": "event"
    },
    {
      "inputs": [],
      "name": "admin",
      "outputs": [
        {
          "internalType": "address",
          "name": "",
          "type": "address"
        }
      ],
      "stateMutability": "view",
      "type": "function",
      "constant": true
    },
    {
      "inputs": [],
      "name": "nextOrderid",
      "outputs": [
        {
          "internalType": "uint256",
          "name": "",
          "type": "uint256"
        }
      ],
      "stateMutability": "view",
      "type": "function",
      "constant": true
    },
    {
      "inputs": [],
      "name": "nextTradeId",
      "outputs": [
        {
          "internalType": "uint256",
          "name": "",
          "type": "uint256"
        }
      ],
      "stateMutability": "view",
      "type": "function",
      "constant": true
    },
    {
      "inputs": [
        {
          "internalType": "bytes32",
          "name": "",
          "type": "bytes32"
        },
        {
          "internalType": "uint256",
          "name": "",
          "type": "uint256"
        },
        {
          "internalType": "uint256",
          "name": "",
          "type": "uint256"
        }
      ],
      "name": "orderBook",
      "outputs": [
        {
          "internalType": "uint256",
          "name": "id",
          "type": "uint256"
        },
        {
          "internalType": "address",
          "name": "trader",
          "type": "address"
        },
        {
          "internalType": "enum Dex.Side",
          "name": "side",
          "type": "uint8"
        },
        {
          "internalType": "bytes32",
          "name": "ticker",
          "type": "bytes32"
        },
        {
          "internalType": "uint256",
          "name": "amount",
          "type": "uint256"
        },
        {
          "internalType": "uint256",
          "name": "filled",
          "type": "uint256"
        },
        {
          "internalType": "uint256",
          "name": "price",
          "type": "uint256"
        },
        {
          "internalType": "uint256",
          "name": "date",
          "type": "uint256"
        }
      ],
      "stateMutability": "view",
      "type": "function",
      "constant": true
    },
    {
      "inputs": [
        {
          "internalType": "uint256",
          "name": "",
          "type": "uint256"
        }
      ],
      "name": "tokenList",
      "outputs": [
        {
          "internalType": "bytes32",
          "name": "",
          "type": "bytes32"
        }
      ],
      "stateMutability": "view",
      "type": "function",
      "constant": true
    },
    {
      "inputs": [
        {
          "internalType": "bytes32",
          "name": "",
          "type": "bytes32"
        }
      ],
      "name": "tokens",
      "outputs": [
        {
          "internalType": "bytes32",
          "name": "ticker",
          "type": "bytes32"
        },
        {
          "internalType": "address",
          "name": "tokenAddress",
          "type": "address"
        }
      ],
      "stateMutability": "view",
      "type": "function",
      "constant": true
    },
    {
      "inputs": [
        {
          "internalType": "address",
          "name": "",
          "type": "address"
        },
        {
          "internalType": "bytes32",
          "name": "",
          "type": "bytes32"
        }
      ],
      "name": "traderBalances",
      "outputs": [
        {
          "internalType": "uint256",
          "name": "",
          "type": "uint256"
        }
      ],
      "stateMutability": "view",
      "type": "function",
      "constant": true
    },
    {
      "inputs": [
        {
          "internalType": "bytes32",
          "name": "ticker",
          "type": "bytes32"
        },
        {
          "internalType": "enum Dex.Side",
          "name": "side",
          "type": "uint8"
        }
      ],
      "name": "getOrders",
      "outputs": [
        {
          "components": [
            {
              "internalType": "uint256",
              "name": "id",
              "type": "uint256"
            },
            {
              "internalType": "address",
              "name": "trader",
              "type": "address"
            },
            {
              "internalType": "enum Dex.Side",
              "name": "side",
              "type": "uint8"
            },
            {
              "internalType": "bytes32",
              "name": "ticker",
              "type": "bytes32"
            },
            {
              "internalType": "uint256",
              "name": "amount",
              "type": "uint256"
            },
            {
              "internalType": "uint256",
              "name": "filled",
              "type": "uint256"
            },
            {
              "internalType": "uint256",
              "name": "price",
              "type": "uint256"
            },
            {
              "internalType": "uint256",
              "name": "date",
              "type": "uint256"
            }
          ],
          "internalType": "struct Dex.Order[]",
          "name": "",
          "type": "tuple[]"
        }
      ],
      "stateMutability": "view",
      "type": "function",
      "constant": true
    },
    {
      "inputs": [],
      "name": "getTokens",
      "outputs": [
        {
          "components": [
            {
              "internalType": "bytes32",
              "name": "ticker",
              "type": "bytes32"
            },
            {
              "internalType": "address",
              "name": "tokenAddress",
              "type": "address"
            }
          ],
          "internalType": "struct Dex.Token[]",
          "name": "",
          "type": "tuple[]"
        }
      ],
      "stateMutability": "view",
      "type": "function",
      "constant": true
    },
    {
      "inputs": [
        {
          "internalType": "bytes32",
          "name": "ticker",
          "type": "bytes32"
        },
        {
          "internalType": "address",
          "name": "tokenAddress",
          "type": "address"
        }
      ],
      "name": "addToken",
      "outputs": [],
      "stateMutability": "nonpayable",
      "type": "function"
    },
    {
      "inputs": [
        {
          "internalType": "uint256",
          "name": "amount",
          "type": "uint256"
        },
        {
          "internalType": "bytes32",
          "name": "ticker",
          "type": "bytes32"
        }
      ],
      "name": "deposit",
      "outputs": [],
      "stateMutability": "nonpayable",
      "type": "function"
    },
    {
      "inputs": [
        {
          "internalType": "uint256",
          "name": "amount",
          "type": "uint256"
        },
        {
          "internalType": "bytes32",
          "name": "ticker",
          "type": "bytes32"
        }
      ],
      "name": "withdraw",
      "outputs": [],
      "stateMutability": "nonpayable",
      "type": "function"
    },
    {
      "inputs": [
        {
          "internalType": "bytes32",
          "name": "ticker",
          "type": "bytes32"
        },
        {
          "internalType": "uint256",
          "name": "amount",
          "type": "uint256"
        },
        {
          "internalType": "uint256",
          "name": "price",
          "type": "uint256"
        },
        {
          "internalType": "enum Dex.Side",
          "name": "side",
          "type": "uint8"
        }
      ],
      "name": "createLimitOrder",
      "outputs": [],
      "stateMutability": "nonpayable",
      "type": "function"
    },
    {
      "inputs": [
        {
          "internalType": "bytes32",
          "name": "ticker",
          "type": "bytes32"
        },
        {
          "internalType": "uint256",
          "name": "amount",
          "type": "uint256"
        },
        {
          "internalType": "enum Dex.Side",
          "name": "side",
          "type": "uint8"
        }
      ],
      "name": "createMarketOrder",
      "outputs": [],
      "stateMutability": "nonpayable",
      "type": "function"
    }
  ],
  "bytecode": "0x608060405234801561001057600080fd5b5033600560006101000a81548173ffffffffffffffffffffffffffffffffffffffff021916908373ffffffffffffffffffffffffffffffffffffffff16021790555061358a806100616000396000f3fe608060405234801561001057600080fd5b50600436106100e95760003560e01c80639776aacf1161008c578063aa6ca80811610066578063aa6ca80814610276578063c9630cb014610294578063d9c0c950146102b0578063f851a440146102cc576100e9565b80639776aacf1461020e5780639ead72221461022a578063a8d2021a1461025a576100e9565b806372ce957e116100c857806372ce957e146101735780637f2c6246146101a3578063813ad083146101bf578063904194a3146101dd576100e9565b8062969e86146100ee5780630bb431b61461010c57806346e9658b14610143575b600080fd5b6100f66102ea565b604051610103919061282d565b60405180910390f35b610126600480360381019061012191906128af565b6102f0565b60405161013a9897969594939291906129c9565b60405180910390f35b61015d60048036038101906101589190612a6c565b61038f565b60405161016a9190612c3a565b60405180910390f35b61018d60048036038101906101889190612c88565b6104f3565b60405161019a919061282d565b60405180910390f35b6101bd60048036038101906101b89190612cc8565b610518565b005b6101c76116fa565b6040516101d4919061282d565b60405180910390f35b6101f760048036038101906101f29190612d1b565b611700565b604051610205929190612d48565b60405180910390f35b61022860048036038101906102239190612d71565b611744565b005b610244600480360381019061023f9190612db1565b611892565b6040516102519190612dde565b60405180910390f35b610274600480360381019061026f9190612df9565b6118b6565b005b61027e611b5e565b60405161028b9190612f17565b60405180910390f35b6102ae60048036038101906102a99190612df9565b611cb7565b005b6102ca60048036038101906102c59190612f39565b611ece565b005b6102d4612779565b6040516102e19190612fa0565b60405180910390f35b60065481565b6004602052826000526040600020602052816000526040600020818154811061031857600080fd5b906000526020600020906007020160009250925050508060000154908060010160009054906101000a900473ffffffffffffffffffffffffffffffffffffffff16908060010160149054906101000a900460ff16908060020154908060030154908060040154908060050154908060060154905088565b60606004600084815260200190815260200160002060008360018111156103b9576103b8612943565b5b8152602001908152602001600020805480602002602001604051908101604052809291908181526020016000905b828210156104e7578382906000526020600020906007020160405180610100016040529081600082015481526020016001820160009054906101000a900473ffffffffffffffffffffffffffffffffffffffff1673ffffffffffffffffffffffffffffffffffffffff1673ffffffffffffffffffffffffffffffffffffffff1681526020016001820160149054906101000a900460ff1660018111156104905761048f612943565b5b60018111156104a2576104a1612943565b5b815260200160028201548152602001600382015481526020016004820154815260200160058201548152602001600682015481525050815260200190600101906103e7565b50505050905092915050565b6002602052816000526040600020602052806000526040600020600091509150505481565b82600073ffffffffffffffffffffffffffffffffffffffff1660008083815260200190815260200160002060010160009054906101000a900473ffffffffffffffffffffffffffffffffffffffff1673ffffffffffffffffffffffffffffffffffffffff16036105bd576040517f08c379a00000000000000000000000000000000000000000000000000000000081526004016105b490613018565b60405180910390fd5b837f44414900000000000000000000000000000000000000000000000000000000008103610620576040517f08c379a000000000000000000000000000000000000000000000000000000000815260040161061790613084565b60405180910390fd5b60018081111561063357610632612943565b5b83600181111561064657610645612943565b5b036106df5783600260003373ffffffffffffffffffffffffffffffffffffffff1673ffffffffffffffffffffffffffffffffffffffff16815260200190815260200160002060008781526020019081526020016000205410156106de576040517f08c379a00000000000000000000000000000000000000000000000000000000081526004016106d5906130f0565b60405180910390fd5b5b600060046000878152602001908152602001600020600080600181111561070957610708612943565b5b86600181111561071c5761071b612943565b5b1461072857600061072b565b60015b600181111561073d5761073c612943565b5b815260200190815260200160002090506000808690505b8280549050821080156107675750600081115b156114795760006107c984848154811061078457610783613110565b5b9060005260206000209060070201600401548585815481106107a9576107a8613110565b5b90600052602060002090600702016003015461279f90919063ffffffff16565b905060008183116107da57826107dc565b815b90506107f1818461279f90919063ffffffff16565b925061082a8186868154811061080a57610809613110565b5b9060005260206000209060070201600401546127b590919063ffffffff16565b85858154811061083d5761083c613110565b5b9060005260206000209060070201600401819055503373ffffffffffffffffffffffffffffffffffffffff1685858154811061087c5761087b613110565b5b906000526020600020906007020160010160009054906101000a900473ffffffffffffffffffffffffffffffffffffffff1673ffffffffffffffffffffffffffffffffffffffff168b7fdb0c486e680ba8026643e6a85f8d157b5e7bcd4b32b54d564542570a9eb204166003548989815481106108fc576108fb613110565b5b906000526020600020906007020160000154868b8b8154811061092257610921613110565b5b9060005260206000209060070201600501544260405161094695949392919061313f565b60405180910390a460018081111561096157610960612943565b5b88600181111561097457610973612943565b5b03610e52576109dc81600260003373ffffffffffffffffffffffffffffffffffffffff1673ffffffffffffffffffffffffffffffffffffffff16815260200190815260200160002060008d81526020019081526020016000205461279f90919063ffffffff16565b600260003373ffffffffffffffffffffffffffffffffffffffff1673ffffffffffffffffffffffffffffffffffffffff16815260200190815260200160002060008c815260200190815260200160002081905550610ae9610a6a868681548110610a4957610a48613110565b5b906000526020600020906007020160050154836127cb90919063ffffffff16565b600260003373ffffffffffffffffffffffffffffffffffffffff1673ffffffffffffffffffffffffffffffffffffffff16815260200190815260200160002060007f44414900000000000000000000000000000000000000000000000000000000008152602001908152602001600020546127b590919063ffffffff16565b600260003373ffffffffffffffffffffffffffffffffffffffff1673ffffffffffffffffffffffffffffffffffffffff16815260200190815260200160002060007f4441490000000000000000000000000000000000000000000000000000000000815260200190815260200160002081905550610c048160026000888881548110610b7857610b77613110565b5b906000526020600020906007020160010160009054906101000a900473ffffffffffffffffffffffffffffffffffffffff1673ffffffffffffffffffffffffffffffffffffffff1673ffffffffffffffffffffffffffffffffffffffff16815260200190815260200160002060008d8152602001908152602001600020546127b590919063ffffffff16565b60026000878781548110610c1b57610c1a613110565b5b906000526020600020906007020160010160009054906101000a900473ffffffffffffffffffffffffffffffffffffffff1673ffffffffffffffffffffffffffffffffffffffff1673ffffffffffffffffffffffffffffffffffffffff16815260200190815260200160002060008c815260200190815260200160002081905550610d99610cd6868681548110610cb557610cb4613110565b5b906000526020600020906007020160050154836127cb90919063ffffffff16565b60026000888881548110610ced57610cec613110565b5b906000526020600020906007020160010160009054906101000a900473ffffffffffffffffffffffffffffffffffffffff1673ffffffffffffffffffffffffffffffffffffffff1673ffffffffffffffffffffffffffffffffffffffff16815260200190815260200160002060007f444149000000000000000000000000000000000000000000000000000000000081526020019081526020016000205461279f90919063ffffffff16565b60026000878781548110610db057610daf613110565b5b906000526020600020906007020160010160009054906101000a900473ffffffffffffffffffffffffffffffffffffffff1673ffffffffffffffffffffffffffffffffffffffff1673ffffffffffffffffffffffffffffffffffffffff16815260200190815260200160002060007f44414900000000000000000000000000000000000000000000000000000000008152602001908152602001600020819055505b60006001811115610e6657610e65612943565b5b886001811115610e7957610e78612943565b5b0361144057610eb5858581548110610e9457610e93613110565b5b906000526020600020906007020160050154826127cb90919063ffffffff16565b600260003373ffffffffffffffffffffffffffffffffffffffff1673ffffffffffffffffffffffffffffffffffffffff16815260200190815260200160002060007f44414900000000000000000000000000000000000000000000000000000000008152602001908152602001600020541015610f67576040517f08c379a0000000000000000000000000000000000000000000000000000000008152600401610f5e906131de565b60405180910390fd5b610fca81600260003373ffffffffffffffffffffffffffffffffffffffff1673ffffffffffffffffffffffffffffffffffffffff16815260200190815260200160002060008d8152602001908152602001600020546127b590919063ffffffff16565b600260003373ffffffffffffffffffffffffffffffffffffffff1673ffffffffffffffffffffffffffffffffffffffff16815260200190815260200160002060008c8152602001908152602001600020819055506110d761105886868154811061103757611036613110565b5b906000526020600020906007020160050154836127cb90919063ffffffff16565b600260003373ffffffffffffffffffffffffffffffffffffffff1673ffffffffffffffffffffffffffffffffffffffff16815260200190815260200160002060007f444149000000000000000000000000000000000000000000000000000000000081526020019081526020016000205461279f90919063ffffffff16565b600260003373ffffffffffffffffffffffffffffffffffffffff1673ffffffffffffffffffffffffffffffffffffffff16815260200190815260200160002060007f44414900000000000000000000000000000000000000000000000000000000008152602001908152602001600020819055506111f2816002600088888154811061116657611165613110565b5b906000526020600020906007020160010160009054906101000a900473ffffffffffffffffffffffffffffffffffffffff1673ffffffffffffffffffffffffffffffffffffffff1673ffffffffffffffffffffffffffffffffffffffff16815260200190815260200160002060008d81526020019081526020016000205461279f90919063ffffffff16565b6002600087878154811061120957611208613110565b5b906000526020600020906007020160010160009054906101000a900473ffffffffffffffffffffffffffffffffffffffff1673ffffffffffffffffffffffffffffffffffffffff1673ffffffffffffffffffffffffffffffffffffffff16815260200190815260200160002060008c8152602001908152602001600020819055506113876112c48686815481106112a3576112a2613110565b5b906000526020600020906007020160050154836127cb90919063ffffffff16565b600260008888815481106112db576112da613110565b5b906000526020600020906007020160010160009054906101000a900473ffffffffffffffffffffffffffffffffffffffff1673ffffffffffffffffffffffffffffffffffffffff1673ffffffffffffffffffffffffffffffffffffffff16815260200190815260200160002060007f44414900000000000000000000000000000000000000000000000000000000008152602001908152602001600020546127b590919063ffffffff16565b6002600087878154811061139e5761139d613110565b5b906000526020600020906007020160010160009054906101000a900473ffffffffffffffffffffffffffffffffffffffff1673ffffffffffffffffffffffffffffffffffffffff1673ffffffffffffffffffffffffffffffffffffffff16815260200190815260200160002060007f44414900000000000000000000000000000000000000000000000000000000008152602001908152602001600020819055505b61145660016003546127b590919063ffffffff16565b6003819055506114706001856127b590919063ffffffff16565b93505050610754565b600091505b8280549050821080156114d8575082828154811061149f5761149e613110565b5b9060005260206000209060070201600301548383815481106114c4576114c3613110565b5b906000526020600020906007020160040154145b156116f05760008290505b600184805490506114f4919061322d565b81101561163f57836001826115099190613261565b8154811061151a57611519613110565b5b906000526020600020906007020184828154811061153b5761153a613110565b5b9060005260206000209060070201600082015481600001556001820160009054906101000a900473ffffffffffffffffffffffffffffffffffffffff168160010160006101000a81548173ffffffffffffffffffffffffffffffffffffffff021916908373ffffffffffffffffffffffffffffffffffffffff1602179055506001820160149054906101000a900460ff168160010160146101000a81548160ff021916908360018111156115f2576115f1612943565b5b021790555060028201548160020155600382015481600301556004820154816004015560058201548160050155600682015481600601559050508080611637906132b7565b9150506114e3565b5082805480611651576116506132ff565b5b60019003818190600052602060002090600702016000808201600090556001820160006101000a81549073ffffffffffffffffffffffffffffffffffffffff02191690556001820160146101000a81549060ff021916905560028201600090556003820160009055600482016000905560058201600090556006820160009055505090556116e96001836127b590919063ffffffff16565b915061147e565b5050505050505050565b60035481565b60006020528060005260406000206000915090508060000154908060010160009054906101000a900473ffffffffffffffffffffffffffffffffffffffff16905082565b600560009054906101000a900473ffffffffffffffffffffffffffffffffffffffff1673ffffffffffffffffffffffffffffffffffffffff163373ffffffffffffffffffffffffffffffffffffffff16146117d4576040517f08c379a00000000000000000000000000000000000000000000000000000000081526004016117cb9061337a565b60405180910390fd5b60405180604001604052808381526020018273ffffffffffffffffffffffffffffffffffffffff168152506000808481526020019081526020016000206000820151816000015560208201518160010160006101000a81548173ffffffffffffffffffffffffffffffffffffffff021916908373ffffffffffffffffffffffffffffffffffffffff16021790555090505060018290806001815401808255809150506001900390600052602060002001600090919091909150555050565b600181815481106118a257600080fd5b906000526020600020016000915090505481565b80600073ffffffffffffffffffffffffffffffffffffffff1660008083815260200190815260200160002060010160009054906101000a900473ffffffffffffffffffffffffffffffffffffffff1673ffffffffffffffffffffffffffffffffffffffff160361195b576040517f08c379a000000000000000000000000000000000000000000000000000000000815260040161195290613018565b60405180910390fd5b82600260003373ffffffffffffffffffffffffffffffffffffffff1673ffffffffffffffffffffffffffffffffffffffff16815260200190815260200160002060008481526020019081526020016000205410156119ee576040517f08c379a00000000000000000000000000000000000000000000000000000000081526004016119e5906133e6565b60405180910390fd5b611a5183600260003373ffffffffffffffffffffffffffffffffffffffff1673ffffffffffffffffffffffffffffffffffffffff16815260200190815260200160002060008581526020019081526020016000205461279f90919063ffffffff16565b600260003373ffffffffffffffffffffffffffffffffffffffff1673ffffffffffffffffffffffffffffffffffffffff16815260200190815260200160002060008481526020019081526020016000208190555060008083815260200190815260200160002060010160009054906101000a900473ffffffffffffffffffffffffffffffffffffffff1673ffffffffffffffffffffffffffffffffffffffff1663a9059cbb33856040518363ffffffff1660e01b8152600401611b15929190613406565b6020604051808303816000875af1158015611b34573d6000803e3d6000fd5b505050506040513d601f19601f82011682018060405250810190611b589190613467565b50505050565b6060600060018054905067ffffffffffffffff811115611b8157611b80613494565b5b604051908082528060200260200182016040528015611bba57816020015b611ba76127e1565b815260200190600190039081611b9f5790505b50905060005b600180549050811015611caf57604051806040016040528060008060018581548110611bef57611bee613110565b5b9060005260206000200154815260200190815260200160002060000154815260200160008060018581548110611c2857611c27613110565b5b9060005260206000200154815260200190815260200160002060010160009054906101000a900473ffffffffffffffffffffffffffffffffffffffff1673ffffffffffffffffffffffffffffffffffffffff16815250828281518110611c9157611c90613110565b5b60200260200101819052508080611ca7906132b7565b915050611bc0565b508091505090565b80600073ffffffffffffffffffffffffffffffffffffffff1660008083815260200190815260200160002060010160009054906101000a900473ffffffffffffffffffffffffffffffffffffffff1673ffffffffffffffffffffffffffffffffffffffff1603611d5c576040517f08c379a0000000000000000000000000000000000000000000000000000000008152600401611d5390613018565b60405180910390fd5b60008083815260200190815260200160002060010160009054906101000a900473ffffffffffffffffffffffffffffffffffffffff1673ffffffffffffffffffffffffffffffffffffffff166323b872dd3330866040518463ffffffff1660e01b8152600401611dce939291906134c3565b6020604051808303816000875af1158015611ded573d6000803e3d6000fd5b505050506040513d601f19601f82011682018060405250810190611e119190613467565b50611e7583600260003373ffffffffffffffffffffffffffffffffffffffff1673ffffffffffffffffffffffffffffffffffffffff1681526020019081526020016000206000858152602001908152602001600020546127b590919063ffffffff16565b600260003373ffffffffffffffffffffffffffffffffffffffff1673ffffffffffffffffffffffffffffffffffffffff168152602001908152602001600020600084815260200190815260200160002081905550505050565b83600073ffffffffffffffffffffffffffffffffffffffff1660008083815260200190815260200160002060010160009054906101000a900473ffffffffffffffffffffffffffffffffffffffff1673ffffffffffffffffffffffffffffffffffffffff1603611f73576040517f08c379a0000000000000000000000000000000000000000000000000000000008152600401611f6a90613018565b60405180910390fd5b847f44414900000000000000000000000000000000000000000000000000000000008103611fd6576040517f08c379a0000000000000000000000000000000000000000000000000000000008152600401611fcd90613084565b60405180910390fd5b600180811115611fe957611fe8612943565b5b836001811115611ffc57611ffb612943565b5b036120995784600260003373ffffffffffffffffffffffffffffffffffffffff1673ffffffffffffffffffffffffffffffffffffffff1681526020019081526020016000206000888152602001908152602001600020541015612094576040517f08c379a000000000000000000000000000000000000000000000000000000000815260040161208b906130f0565b60405180910390fd5b61215f565b6120ac84866127cb90919063ffffffff16565b600260003373ffffffffffffffffffffffffffffffffffffffff1673ffffffffffffffffffffffffffffffffffffffff16815260200190815260200160002060007f4441490000000000000000000000000000000000000000000000000000000000815260200190815260200160002054101561215e576040517f08c379a0000000000000000000000000000000000000000000000000000000008152600401612155906131de565b60405180910390fd5b5b600060046000888152602001908152602001600020600085600181111561218957612188612943565b5b815260200190815260200160002090508060405180610100016040528060065481526020013373ffffffffffffffffffffffffffffffffffffffff1681526020018660018111156121dd576121dc612943565b5b8152602001898152602001888152602001600081526020018781526020014281525090806001815401808255809150506001900390600052602060002090600702016000909190919091506000820151816000015560208201518160010160006101000a81548173ffffffffffffffffffffffffffffffffffffffff021916908373ffffffffffffffffffffffffffffffffffffffff16021790555060408201518160010160146101000a81548160ff021916908360018111156122a4576122a3612943565b5b0217905550606082015181600201556080820151816003015560a0820151816004015560c0820151816005015560e0820151816006015550506000808280549050116122f1576000612303565b60018280549050612302919061322d565b5b90505b6000811115612753576000600181111561232357612322612943565b5b85600181111561233657612335612943565b5b148015612396575081818154811061235157612350613110565b5b90600052602060002090600702016005015482600183612371919061322d565b8154811061238257612381613110565b5b906000526020600020906007020160050154115b612753576001808111156123ad576123ac612943565b5b8560018111156123c0576123bf612943565b5b14801561242057508181815481106123db576123da613110565b5b906000526020600020906007020160050154826001836123fb919061322d565b8154811061240c5761240b613110565b5b906000526020600020906007020160050154105b61275357600082600183612434919061322d565b8154811061244557612444613110565b5b906000526020600020906007020160405180610100016040529081600082015481526020016001820160009054906101000a900473ffffffffffffffffffffffffffffffffffffffff1673ffffffffffffffffffffffffffffffffffffffff1673ffffffffffffffffffffffffffffffffffffffff1681526020016001820160149054906101000a900460ff1660018111156124e4576124e3612943565b5b60018111156124f6576124f5612943565b5b815260200160028201548152602001600382015481526020016004820154815260200160058201548152602001600682015481525050905082828154811061254157612540613110565b5b90600052602060002090600702018360018461255d919061322d565b8154811061256e5761256d613110565b5b9060005260206000209060070201600082015481600001556001820160009054906101000a900473ffffffffffffffffffffffffffffffffffffffff168160010160006101000a81548173ffffffffffffffffffffffffffffffffffffffff021916908373ffffffffffffffffffffffffffffffffffffffff1602179055506001820160149054906101000a900460ff168160010160146101000a81548160ff0219169083600181111561262557612624612943565b5b021790555060028201548160020155600382015481600301556004820154816004015560058201548160050155600682015481600601559050508083838154811061267357612672613110565b5b90600052602060002090600702016000820151816000015560208201518160010160006101000a81548173ffffffffffffffffffffffffffffffffffffffff021916908373ffffffffffffffffffffffffffffffffffffffff16021790555060408201518160010160146101000a81548160ff021916908360018111156126fd576126fc612943565b5b0217905550606082015181600201556080820151816003015560a0820151816004015560c0820151816005015560e0820151816006015590505061274b60018361279f90919063ffffffff16565b915050612306565b61276960016006546127b590919063ffffffff16565b6006819055505050505050505050565b600560009054906101000a900473ffffffffffffffffffffffffffffffffffffffff1681565b600081836127ad919061322d565b905092915050565b600081836127c39190613261565b905092915050565b600081836127d991906134fa565b905092915050565b604051806040016040528060008019168152602001600073ffffffffffffffffffffffffffffffffffffffff1681525090565b6000819050919050565b61282781612814565b82525050565b6000602082019050612842600083018461281e565b92915050565b600080fd5b6000819050919050565b6128608161284d565b811461286b57600080fd5b50565b60008135905061287d81612857565b92915050565b61288c81612814565b811461289757600080fd5b50565b6000813590506128a981612883565b92915050565b6000806000606084860312156128c8576128c7612848565b5b60006128d68682870161286e565b93505060206128e78682870161289a565b92505060406128f88682870161289a565b9150509250925092565b600073ffffffffffffffffffffffffffffffffffffffff82169050919050565b600061292d82612902565b9050919050565b61293d81612922565b82525050565b7f4e487b7100000000000000000000000000000000000000000000000000000000600052602160045260246000fd5b6002811061298357612982612943565b5b50565b600081905061299482612972565b919050565b60006129a482612986565b9050919050565b6129b481612999565b82525050565b6129c38161284d565b82525050565b6000610100820190506129df600083018b61281e565b6129ec602083018a612934565b6129f960408301896129ab565b612a0660608301886129ba565b612a13608083018761281e565b612a2060a083018661281e565b612a2d60c083018561281e565b612a3a60e083018461281e565b9998505050505050505050565b60028110612a5457600080fd5b50565b600081359050612a6681612a47565b92915050565b60008060408385031215612a8357612a82612848565b5b6000612a918582860161286e565b9250506020612aa285828601612a57565b9150509250929050565b600081519050919050565b600082825260208201905092915050565b6000819050602082019050919050565b612ae181612814565b82525050565b612af081612922565b82525050565b612aff81612999565b82525050565b612b0e8161284d565b82525050565b61010082016000820151612b2b6000850182612ad8565b506020820151612b3e6020850182612ae7565b506040820151612b516040850182612af6565b506060820151612b646060850182612b05565b506080820151612b776080850182612ad8565b5060a0820151612b8a60a0850182612ad8565b5060c0820151612b9d60c0850182612ad8565b5060e0820151612bb060e0850182612ad8565b50505050565b6000612bc28383612b14565b6101008301905092915050565b6000602082019050919050565b6000612be782612aac565b612bf18185612ab7565b9350612bfc83612ac8565b8060005b83811015612c2d578151612c148882612bb6565b9750612c1f83612bcf565b925050600181019050612c00565b5085935050505092915050565b60006020820190508181036000830152612c548184612bdc565b905092915050565b612c6581612922565b8114612c7057600080fd5b50565b600081359050612c8281612c5c565b92915050565b60008060408385031215612c9f57612c9e612848565b5b6000612cad85828601612c73565b9250506020612cbe8582860161286e565b9150509250929050565b600080600060608486031215612ce157612ce0612848565b5b6000612cef8682870161286e565b9350506020612d008682870161289a565b9250506040612d1186828701612a57565b9150509250925092565b600060208284031215612d3157612d30612848565b5b6000612d3f8482850161286e565b91505092915050565b6000604082019050612d5d60008301856129ba565b612d6a6020830184612934565b9392505050565b60008060408385031215612d8857612d87612848565b5b6000612d968582860161286e565b9250506020612da785828601612c73565b9150509250929050565b600060208284031215612dc757612dc6612848565b5b6000612dd58482850161289a565b91505092915050565b6000602082019050612df360008301846129ba565b92915050565b60008060408385031215612e1057612e0f612848565b5b6000612e1e8582860161289a565b9250506020612e2f8582860161286e565b9150509250929050565b600081519050919050565b600082825260208201905092915050565b6000819050602082019050919050565b604082016000820151612e7b6000850182612b05565b506020820151612e8e6020850182612ae7565b50505050565b6000612ea08383612e65565b60408301905092915050565b6000602082019050919050565b6000612ec482612e39565b612ece8185612e44565b9350612ed983612e55565b8060005b83811015612f0a578151612ef18882612e94565b9750612efc83612eac565b925050600181019050612edd565b5085935050505092915050565b60006020820190508181036000830152612f318184612eb9565b905092915050565b60008060008060808587031215612f5357612f52612848565b5b6000612f618782880161286e565b9450506020612f728782880161289a565b9350506040612f838782880161289a565b9250506060612f9487828801612a57565b91505092959194509250565b6000602082019050612fb56000830184612934565b92915050565b600082825260208201905092915050565b7f7468697320746f6b656e20646f6573206e6f7420657869737400000000000000600082015250565b6000613002601983612fbb565b915061300d82612fcc565b602082019050919050565b6000602082019050818103600083015261303181612ff5565b9050919050565b7f63616e6e6f742074726164652044414900000000000000000000000000000000600082015250565b600061306e601083612fbb565b915061307982613038565b602082019050919050565b6000602082019050818103600083015261309d81613061565b9050919050565b7f746f6b656e2062616c616e636520746f6f206c6f770000000000000000000000600082015250565b60006130da601583612fbb565b91506130e5826130a4565b602082019050919050565b60006020820190508181036000830152613109816130cd565b9050919050565b7f4e487b7100000000000000000000000000000000000000000000000000000000600052603260045260246000fd5b600060a082019050613154600083018861281e565b613161602083018761281e565b61316e604083018661281e565b61317b606083018561281e565b613188608083018461281e565b9695505050505050565b7f6461692062616c616e636520746f6f206c6f7700000000000000000000000000600082015250565b60006131c8601383612fbb565b91506131d382613192565b602082019050919050565b600060208201905081810360008301526131f7816131bb565b9050919050565b7f4e487b7100000000000000000000000000000000000000000000000000000000600052601160045260246000fd5b600061323882612814565b915061324383612814565b925082821015613256576132556131fe565b5b828203905092915050565b600061326c82612814565b915061327783612814565b9250827fffffffffffffffffffffffffffffffffffffffffffffffffffffffffffffffff038211156132ac576132ab6131fe565b5b828201905092915050565b60006132c282612814565b91507fffffffffffffffffffffffffffffffffffffffffffffffffffffffffffffffff82036132f4576132f36131fe565b5b600182019050919050565b7f4e487b7100000000000000000000000000000000000000000000000000000000600052603160045260246000fd5b7f6f6e6c792061646d696e00000000000000000000000000000000000000000000600082015250565b6000613364600a83612fbb565b915061336f8261332e565b602082019050919050565b6000602082019050818103600083015261339381613357565b9050919050565b7f62616c616e636520746f6f206c6f770000000000000000000000000000000000600082015250565b60006133d0600f83612fbb565b91506133db8261339a565b602082019050919050565b600060208201905081810360008301526133ff816133c3565b9050919050565b600060408201905061341b6000830185612934565b613428602083018461281e565b9392505050565b60008115159050919050565b6134448161342f565b811461344f57600080fd5b50565b6000815190506134618161343b565b92915050565b60006020828403121561347d5761347c612848565b5b600061348b84828501613452565b91505092915050565b7f4e487b7100000000000000000000000000000000000000000000000000000000600052604160045260246000fd5b60006060820190506134d86000830186612934565b6134e56020830185612934565b6134f2604083018461281e565b949350505050565b600061350582612814565b915061351083612814565b9250817fffffffffffffffffffffffffffffffffffffffffffffffffffffffffffffffff0483118215151615613549576135486131fe565b5b82820290509291505056fea26469706673582212200b7a67316f80783f8f6f542de81a58e1be0b1003ff560f83f779df2260a1f05664736f6c634300080d0033",
  "immutableReferences": {},
  "source": "pragma solidity >=0.4.25 <0.9.0;\r\npragma experimental ABIEncoderV2;\r\n// SPDX-License-Identifier: UNDEFINED\r\nimport \"@openzeppelin/contracts/token/ERC20/IERC20.sol\";\r\nimport \"@openzeppelin/contracts/utils/math/SafeMath.sol\";\r\n\r\n\r\ncontract Dex{\r\n\r\nusing SafeMath for uint;\r\n\r\nenum Side{\r\n        BUY,\r\n        SELL\r\n    }\r\n\r\n    struct Token{\r\n        bytes32 ticker;\r\n        address tokenAddress;\r\n    }\r\n\r\n    \r\n struct Order{\r\n        uint id;\r\n        address trader;\r\n        Side side;\r\n        bytes32 ticker;\r\n        uint amount;\r\n        uint filled;\r\n        uint price;\r\n        uint date;\r\n    }\r\n\r\n\r\n    mapping(bytes32 => Token) public tokens;\r\n    bytes32[] public tokenList;\r\n    mapping(address => mapping(bytes32 => uint)) public traderBalances;\r\n    uint public nextTradeId;\r\n    //uint represents the BUY and SELL of the enum 0 = buy 1 = sell\r\n    mapping(bytes32 => mapping(uint => Order[])) public orderBook;\r\n    address public admin;\r\n    uint public nextOrderid;\r\n    bytes32 constant DAI = bytes32('DAI');\r\n\r\n    event NewTrade(uint tradeId,uint orderId, bytes32 indexed ticker, address indexed trader1, address indexed trader2, uint amount, uint price,uint date);\r\n\r\n    constructor(){\r\n        admin = msg.sender;\r\n    }\r\n\r\n    function getOrders(bytes32 ticker, Side side) external view returns(Order[] memory) {\r\n    return orderBook[ticker][uint(side)];\r\n  }\r\n\r\n\r\nfunction getTokens() external view returns(Token[] memory) {\r\n      Token[] memory _tokens = new Token[](tokenList.length);\r\n      for (uint i = 0; i < tokenList.length; i++) {\r\n        _tokens[i] = Token(tokens[tokenList[i]].ticker,tokens[tokenList[i]].tokenAddress);\r\n      }\r\n      return _tokens;\r\n    }\r\n\r\n\r\n\r\nfunction addToken(bytes32 ticker,address tokenAddress) onlyAdmin() external{\r\n    tokens[ticker] = Token(ticker, tokenAddress);\r\n    tokenList.push(ticker);\r\n}\r\n\r\nfunction deposit(uint amount, bytes32 ticker) tokenExist(ticker) external{\r\n    IERC20(tokens[ticker].tokenAddress).transferFrom(msg.sender,address(this),amount);\r\n    traderBalances[msg.sender][ticker] = traderBalances[msg.sender][ticker].add(amount);\r\n}\r\n\r\nfunction withdraw(uint amount, bytes32 ticker) tokenExist(ticker) external{\r\n    require(traderBalances[msg.sender][ticker] >= amount,'balance too low');\r\n    traderBalances[msg.sender][ticker] = traderBalances[msg.sender][ticker].sub(amount);\r\n    IERC20(tokens[ticker].tokenAddress).transfer(msg.sender,amount);\r\n}\r\n\r\nfunction createLimitOrder(bytes32 ticker, uint amount, uint price, Side side) tokenExist(ticker) tokenIsNotDai(ticker) external{\r\n    if(side == Side.SELL){\r\n        require(traderBalances[msg.sender][ticker] >= amount,'token balance too low');\r\n\r\n    } else{\r\n        require(traderBalances[msg.sender][DAI] >= amount.mul(price),'dai balance too low');\r\n    }\r\n    Order[] storage orders = orderBook[ticker][uint(side)];\r\n    orders.push(Order(nextOrderid,msg.sender, side, ticker, amount,0,price,block.timestamp));\r\n\r\n    uint i = orders.length > 0 ? orders.length -1 : 0;\r\n    while(i > 0){\r\n        if(side == Side.BUY && orders[i-1].price > orders[i].price){\r\n            break;\r\n        }\r\n        if(side == Side.SELL && orders[i-1].price < orders[i].price){\r\n            break;\r\n        }\r\n        Order memory order = orders[i - 1];\r\n        orders[i - 1] = orders[i];\r\n        orders[i] = order;\r\n        i = i.sub(1);\r\n    }\r\n    nextOrderid = nextOrderid.add(1);\r\n}\r\n\r\n    function createMarketOrder(bytes32 ticker, uint amount, Side side) tokenExist(ticker) tokenIsNotDai(ticker) external{\r\n        if(side == Side.SELL){\r\n        require(traderBalances[msg.sender][ticker] >= amount,'token balance too low');\r\n\r\n        }\r\n        Order[] storage orders = orderBook[ticker][uint(side == Side.BUY ? Side.SELL : Side.BUY)];\r\n        uint i;\r\n        uint remaining = amount;\r\n\r\n        while(i < orders.length && remaining >0 ){\r\n            uint available = orders[i].amount.sub(orders[i].filled);\r\n            uint matched = (remaining > available) ? available :remaining;\r\n            remaining = remaining.sub(matched);\r\n            orders[i].filled = orders[i].filled.add(matched);\r\n            emit NewTrade(nextTradeId, orders[i].id, ticker,orders[i].trader,msg.sender,matched,orders[i].price,block.timestamp);\r\n            if(side == Side.SELL) {\r\n                traderBalances[msg.sender][ticker] = traderBalances[msg.sender][ticker].sub(matched);\r\n                traderBalances[msg.sender][DAI] = traderBalances[msg.sender][DAI].add(matched.mul(orders[i].price));\r\n                traderBalances[orders[i].trader][ticker] = traderBalances[orders[i].trader][ticker].add(matched);\r\n                traderBalances[orders[i].trader][DAI] = traderBalances[orders[i].trader][DAI].sub(matched.mul(orders[i].price));\r\n            }\r\n            if(side == Side.BUY) {\r\n                require(\r\n                    traderBalances[msg.sender][DAI] >= matched.mul(orders[i].price),\r\n                    'dai balance too low'\r\n                );\r\n                traderBalances[msg.sender][ticker] = traderBalances[msg.sender][ticker].add(matched);\r\n                traderBalances[msg.sender][DAI] = traderBalances[msg.sender][DAI].sub(matched.mul(orders[i].price));\r\n                traderBalances[orders[i].trader][ticker] = traderBalances[orders[i].trader][ticker].sub(matched);\r\n                traderBalances[orders[i].trader][DAI] = traderBalances[orders[i].trader][DAI].add(matched.mul(orders[i].price));\r\n            }\r\n            nextTradeId = nextTradeId.add(1);\r\n            i = i.add(1);\r\n        }\r\n        i=0;\r\n        while(i < orders.length && orders[i].filled == orders[i].amount){\r\n            for(uint j = i; j < orders.length -1; j++){\r\n                orders[j] = orders[j+1];\r\n            }\r\n            orders.pop();\r\n            i = i.add(1);\r\n        }\r\n        \r\n    }\r\n\r\nmodifier onlyAdmin(){\r\n    require(msg.sender == admin, 'only admin');\r\n    _;\r\n}\r\nmodifier tokenExist(bytes32 ticker){\r\n    require(tokens[ticker].tokenAddress != address(0),'this token does not exist');\r\n    _;\r\n}\r\nmodifier tokenIsNotDai(bytes32 ticker){\r\n    require(ticker != DAI,'cannot trade DAI');\r\n    _;\r\n}\r\n\r\n}",
  "sourcePath": "C:\\Users\\Moii\\Desktop\\FirstDEX\\contracts\\Dex.sol",
  "compiler": {
    "name": "solc",
    "version": "0.8.13+commit.abaa5c0e.Emscripten.clang"
  },
  "schemaVersion": "3.4.7",
  "updatedAt": "2022-06-09T23:51:08.943Z",
  "networkType": "ethereum",
  "devdoc": {
    "kind": "dev",
    "methods": {},
    "version": 1
  },
  "userdoc": {
    "kind": "user",
    "methods": {},
    "version": 1
  }
}